:020000040800F2
:10000000000002204D020008510B0008530B0008AD
:10001000550B0008570B0008590B000800000000A2
:100020000000000000000000000000005B0B000862
:100030005D0B0008000000005F0B0008610B00086A
:100040009D0200089D0200089D0200089D02000814
:100050009D0200089D0200089D0200089D02000804
:100060009D0200089D0200089D020008690B00081F
:10007000790B00089D0200089D0200089D020008FF
:100080009D0200089D020008B55800089D02000866
:100090009D0200089D0200089D0200089D020008C4
:1000A0009D0200089D0200089D0200089D020008B4
:1000B0009D0200089D0200089D0200089D020008A4
:1000C0009D0200089D0200089D0200089D02000894
:1000D0009D020008695500089D0200089D02000865
:1000E0009D0200089D0200089D0200089D02000874
:1000F0009D0200089D0200089D0200089D02000864
:100100009D0200089D0200089D0200089D02000853
:100110009D0200089D0200089D020008ED5600089F
:100120009D0200089D0200089D0200089D02000833
:100130009D0200089D0200089D0200089D02000823
:100140009D0200089D0200089D0200089D02000813
:100150009D0200089D0200089D0200089D02000803
:100160009D0200089D0200089D0200089D020008F3
:100170009D0200089D0200089D0200089D020008E3
:100180009D0200089D0200089D0200089D020008D3
:100190009D020008000000009D0200089D0200086A
:1001A0009D0200089D0200089D0200089D020008B3
:1001B0009D0200089D0200089D0200089D020008A3
:1001C0009D0200089D0200089D0200089D02000893
:0801D0009D0200089D020008D9
:1001D80053B94AB9002908BF00281CBF4FF0FF31A6
:1001E8004FF0FF3000F00CB8ADF1080C6DE904CE0B
:1001F80005F048FEDDF804E0DDE9022304B07047AD
:10020800704700BF10B5054C237833B9044B13B1C0
:100218000448AFF300800123237010BD780000204C
:10022800000000004861000808B5034B1BB10349F2
:100238000348AFF3008008BD000000007C000020E8
:10024800486100080D4885460D480E490E4A0023AE
:1002580002E0D458C4500433C4188C42F9D30B4A72
:100268000B4C002301E013600432A242FBD304F0DC
:10027800F1FC05F0D5FD00F047F8FEE7000002208C
:100288000000002078000020B063000878000020FB
:1002980010060020FEE772B6FEE700B595B03822DA
:1002A800002106A805F0B4FD0020019002900390FB
:1002B8000490059002F012FD012206924FF480335B
:1002C800079302230D9303210E910F922A22109275
:1002D80011931293139306A801F024FB80B90F23FE
:1002E80001930323029300230393049305930421AA
:1002F8000DEB010001F0CEFD20B915B05DF804FB4F
:10030800FFF7C9FFFFF7C7FF08B501F0A9FAFFF724
:10031800C4FF00F011F800F04DF900F09DF900F06D
:10032800DDFA00F05BFB00F081F800F017FA00F04E
:100338006BF904F0D9FEFEE7F0B58BB00024059404
:100348000694079408940994344BDA6C42F004023A
:10035800DA64DA6C02F004020092009ADA6C42F075
:100368002002DA64DA6C02F020020192019ADA6C57
:1003780042F00102DA64DA6C02F001020292029A97
:10038800DA6C42F00202DA64DA6C02F002020392DA
:10039800039ADA6C42F00802DA64DB6C03F00803B3
:1003A8000493049B1E4D224642F21401284602F093
:1003B800FEFA224604214FF0904002F0F8FA42F289
:1003C80014030593012706970794089405A928465E
:1003D80002F0FCF90426059606970794089405A9E7
:1003E8004FF0904002F0F2F94FF4E0530593069471
:1003F800079405A9284602F0E9F90596069407949A
:1004080005A9084802F0E2F9182305930694079411
:1004180005A9054802F0DAF90BB0F0BD001002405A
:1004280000080048000C00480004004800B591B0DE
:100438003C22002101A805F0EBFC2A482A4B036066
:100448004FF44033436000238360C360036101229B
:1004580042610421816103774377026280F8243086
:1004680080F83830C36380F8403000F0A5FB0028DE
:100478002FD11E4B019309230293032303937F2358
:1004880004930423059300230693022209928DF80E
:1004980028308DF829308DF82A30B8220B92802226
:1004A8000C9201228DF834200C220E920F9301A990
:1004B8000C4800F0A3FE78B90D4B019340F20F13DE
:1004C800029301A9074800F099FE40B911B05DF800
:1004D80004FBFFF7E0FECCE7FFF7DDFEECE7FFF7F4
:1004E800DAFEF3E794000020000100500200300417
:1004F8000008302E70B59EB00446002119911A915B
:100508001B911C911D91542204A805F081FC2268BE
:10051800254B9A4201D01EB070BD4FF4004304939E
:100528004FF00053159304A801F0DAFD002837D1E5
:100538001E4BDA6C42F40052DA64DA6C02F40052B0
:100548000192019ADA6C42F00102DA64DA6C02F084
:1005580001020292029ADA6C42F00402DA64DB6C5D
:1005680003F004030393039B0125199503261A96A8
:1005780000241B9419A94FF0904002F027F920237A
:1005880019931A961B9419A9094802F01FF92246D3
:100598002946122002F084FC122002F091FCBAE7EE
:1005A800FFF779FEC4E700BF0001005000100240C9
:1005B8000008004800B583B0124B9A6C42F0040260
:1005C8009A649A6C02F004020092009A9A6C42F0C3
:1005D80001029A649B6C03F001030193019B0022C2
:1005E80001210B2002F05CFC0B2002F069FC0022C8
:1005F80001210C2002F054FC0C2002F061FC03B035
:100608005DF804FB0010024008B51148114B036067
:100618004FF4827343604FF4806383604FF4E06368
:10062800C36000230361012242614FF400728261BA
:100638003822C2610362436283620722C262036393
:10064800436302F0A3FD00B908BDFFF724FEFBE7F2
:10065800640100200030014008B51148114B0360C7
:100668004FF4827343604FF4806383604FF4E06318
:10067800C3600023036143614FF400728261382232
:10068800C2610362436283620722C2620363082372
:10069800436302F07BFD00B908BDFFF7FCFDFBE7F3
:1006A800000100200038004000B58BB000230593FE
:1006B80006930793089309930368244A934205D045
:1006C800234A934223D00BB05DF804FB214B1A6EEA
:1006D80042F480521A661A6E02F480520192019A0C
:1006E800DA6C42F00102DA64DB6C03F00103029376
:1006F800029B602305930223069303230893052393
:10070800099305A94FF0904002F060F8DBE7114B20
:100718009A6D42F480429A659A6D02F4804203927F
:10072800039ADA6C42F00202DA64DB6C03F002032B
:100738000493049B4FF4C0430593022306930523B7
:10074800099305A9044802F041F8BCE700300140CC
:1007580000380040001002400004004800B585B091
:1007680000230193029303931048114A026040F258
:100778008F62426083604CF25033C3608023836190
:1007880003F054FA58B9202301930023039301A9D5
:10079800064803F07FFD28B905B05DF804FBFFF7B4
:1007A8007AFDF0E7FFF777FDF6E700BF14020020B7
:1007B8000010004000B585B0002301930293039315
:1007C8000F48104A026044F29F12426083604FF45F
:1007D8007A73C3608023836103F028FA50B9002339
:1007E8000193039301A9064803F054FD28B905B005
:1007F8005DF804FBFFF74FFDF1E7FFF74CFDF6E767
:10080800C80100200014004000B585B003681A4AEA
:10081800934208D0194A934210D0194A934218D0EB
:1008280005B05DF804FB174B1A6E42F400621A66B5
:100838001B6E03F400630193019BF1E7114B9A6D62
:1008480042F010029A659B6D03F010030293029B1D
:10085800E6E70C4B9A6D42F020029A659B6D03F017
:1008680020030393039B00220221372002F018FB88
:10087800372002F025FBD3E7002C01400010004090
:10088800001400400010024000B587B00023019317
:10089800029303930493059302680F4B9A4202D084
:1008A80007B05DF804FB03F56443DA6C42F001021B
:1008B800DA64DB6C03F001030093009B4FF4807350
:1008C8000193022302930623059301A94FF0904058
:1008D80001F07CFFE4E700BF002C014010B59CB09C
:1008E8000024189419941A941B9415941694179428
:1008F8000E940F9410941194129413941494342217
:10090800214601A805F084FA3248334B03600123DD
:100918004360846040F6AD23C36004614461846130
:1009280003F084F9002843D14FF48053189318A991
:10093800284803F0D3FA00283DD1264803F0A6F949
:1009480000283BD1002315931693179315A9214826
:1009580003F0A0FC002834D160230E9340F25753D3
:100968000F930022109211921292139214920EA9D0
:10097800184803F009FA38BB002301930293039344
:10098800049305934FF40052069207930893099332
:100998004FF000720A920B930C930D9301A90D4826
:1009A80003F0CEFC98B90B48FFF76EFF1CB010BDE2
:1009B800FFF771FCB8E7FFF76EFCBEE7FFF76BFCCB
:1009C800C0E7FFF768FCC7E7FFF765FCD4E7FFF768
:1009D80062FCE8E760020020002C014008B51748D7
:1009E800174B03604FF4E133436000238360C36017
:1009F80003610C2242618361C361036243628362C3
:100A080004F065F870B900210C4804F0D8F860B912
:100A180000210A4804F0F8F850B9084804F0B0F882
:100A280048B908BDFFF737FCEDE7FFF734FCEFE7FF
:100A3800FFF731FCF1E7FFF72EFCF2E76C0300202B
:100A48000038014030B59DB0044600211791189137
:100A580019911A911B91542202A805F0D9F922681C
:100A6800324B9A4201D01DB030BD0123029302A837
:100A780001F036FB002850D12D4B1A6E42F480420B
:100A88001A661A6E02F480420092009ADA6C42F0FA
:100A98000202DA64DB6C03F002030193019BC023BA
:100AA800179302231893002519951A9507231B936A
:100AB80017A9204801F08AFE1F48204B036018231D
:100AC80043608560C5608023036145618561C561B8
:100AD800056201F0D3FF18BB174BE3679C62184807
:100AE800184B036019234360102383600023C360FD
:100AF8008022026143618361C361036201F0BEFF2A
:100B080088B90F4BA3679C6200220121252002F0BF
:100B1800C7F9252002F0D4F9A5E7FFF7BCFBABE73E
:100B2800FFF7B9FBD8E7FFF7B6FBEAE70038014063
:100B380000100240000400480C0300200800024096
:100B4800AC0200201C000240FEE7FEE7FEE7FEE7DD
:100B5800FEE770477047704708B500F091FE08BD82
:100B680008B5024802F055F808BD00BF0C03002084
:100B780008B5024802F04DF808BD00BFAC020020DD
:100B880000B583B00B4B1A6E42F001021A661A6E5A
:100B980002F001020092009A9A6D42F080529A6522
:100BA8009B6D03F080530193019B02F01DF903B084
:100BB8005DF804FB0010024030B583B000230193B8
:100BC800002800F038810446C36D13B323689A687F
:100BD80012F0005F05D09A6822F0204222F03F020E
:100BE8009A602268936813F0805F1FD1936823F09E
:100BF800104323F03F0343F0805393608F4B1B68EF
:100C08009B098F4AA2FB03239B0901335B000193D5
:100C180009E0FFF76FFC0023236684F85830D5E716
:100C2800019B013B0193019B002BF9D1226893683A
:100C380013F0805F3DD1E36D43F01003E365236E4D
:100C480043F0010323660120936813F0040300D0E6
:100C58000123E16D11F0100F40F0E680002B40F009
:100C6800E380E36D23F4817343F00203E365936843
:100C780013F0010F3ED1B2F1A04F1CD0714B9A4234
:100C880019D0714B996811F0010100D001216F4B07
:100C98009B6813F0010300D001230B436C4989685A
:100CA80011F0010100D001210B430CBF01230023E7
:100CB80012E00020C8E74FF0A043996811F0010145
:100CC80000D001215F4B9B6813F0010300D0012382
:100CD8000B430CBF0123002363B1B2F1A04F72D0C4
:100CE800584B9A426DD05B4963688A6822F47C123B
:100CF80013438B60627FE36B43EA4233E26813433A
:100D0800A268134394F8242043EA0243012A5CD0E2
:100D1800E26A22B102F47872216B0A431343216814
:100D2800CD684D4A2A401A43CA602268136923F0E5
:100D38004063616B0B43136121688B6813F00403F4
:100D480000D001238A6812F0080200D001224BBBB0
:100D580042BB237F94F83820520042EA8332CB68A2
:100D680023F4804323F002031343CB602369002B51
:100D780030D02268136943F4803313612268D2F8B3
:100D8800C03023F47F5323F03F0321690B43C2F89B
:100D9800C03094F84030012B2BD02268136923F01F
:100DA800010313616369012B35D02268136B23F0AB
:100DB8000F031363E36D23F0030343F00103E365BB
:100DC80037E0264990E725498EE7A26A013A43EAC7
:100DD80042439DE72268136923F480331361226834
:100DE800D2F8C03023F47F5323F03F03C2F8C03059
:100DF800CFE721680B6923F4FF6323F00403626CD7
:100E0800A56C2A43E56C2A43256D2A43134343F016
:100E180001030B61C6E721680B6B23F00F03226AFD
:100E2800013A13430B63C5E7E36D43F01003E36531
:100E3800012003B030BD0120FBE700BF28000020DF
:100E4800632D3E05000100500004005000050050CD
:100E580000060050000700500740F0FF0003005054
:100E680038B503689A6812F0010F40D104469968B2
:100E7800204A114209D0C36D43F01003C365036EC5
:100E880043F001030366012032E09A6822F0004231
:100E980022F03F0242F001029A6000F0FDFC054694
:100EA80023681A6812F0010F1FD19A6812F0010F17
:100EB80007D19A6822F0004222F03F0242F0010274
:100EC8009A6000F0E9FC431B022BE9D923681B68F0
:100ED80013F0010FE4D1E36D43F01003E365236ED3
:100EE80043F001032366012002E0002000E0002017
:100EF80038BD00BF3F00008038B5044602689368DB
:100F080013F0020300D00123916811F0010F39D0CA
:100F1800002B39D1936803F00D03012B09D0E36D41
:100F280043F01003E365236E43F0010323660120B9
:100F380029E0936823F0004323F03F0343F00203C2
:100F48009360236803221A6000F0A6FC0546236814
:100F58009B6813F0010F13D000F09EFC401B022881
:100F6800F5D923689B6813F0010FF0D0E36D43F0C7
:100F78001003E365236E43F001032366012002E0BA
:100F8800002000E0002038BD0020FCE710B4143039
:100F98004B0E9B0003F00403C458C1F304514FF0F7
:100FA800070C0CFA01FC24EA0C0C8A404CEA0202F9
:100FB800C2505DF8044B704730B583B000230193ED
:100FC80090F85830012B41D004460D46012380F893
:100FD8005830FFF791FF80BBE36D23F4885323F06B
:100FE800020343F00203E3652268936823F0404359
:100FF80023F03F0305F080452B4343F00043936003
:1010080023689B68002B06DBE36D23F0030343F0A2
:101018000103E36515E0019B01330193019A0C4B31
:101028009A42EDD9E36D23F0120343F01003E36510
:10103800002384F85830012006E0E36D43F01003E4
:10104800E365002384F8583003B030BD0220FBE785
:1010580001DE040038B504460368B3F1A04F73D02D
:10106800554A93426DD0554A956805F01F059A6810
:1010780012F0080F40F09B80DA68DB6C13F4C07F35
:1010880001D1002A62DA94F85830012B00F09180DF
:10109800012384F858302046FFF7E2FE002840F08C
:1010A8008280E36D13F4807F56D0236E23F008030B
:1010B8002366E36D23F4405323F0010343F4805384
:1010C800E36523683C4A93424CD002F58062934220
:1010D80045D01A46934200D01DB9E26D22F4801221
:1010E800E26560221A60002384F858302368DA68C1
:1010F80012F4001F03D05A6842F480625A60A36950
:10110800082B32D02268536823F0400353602268CA
:10111800536843F0200353602368274A934232D030
:1011280002F5806293422BD01A4693422ED06DB3BB
:10113800062D2BD0072D29D0E36D43F48013E365EA
:1011480036E002F500728FE71D4A8DE7E36D43F044
:101158002003E36501202BE000232366A9E7A2F51D
:101168008072B7E74FF0A042B4E72268536823F0D3
:10117800200353602268536843F040035360CBE771
:10118800A2F58072D1E74FF0A042CEE7DA6812F0FC
:10119800007F0DD19A6822F0004222F03F0242F00F
:1011A80008029A6004E0002384F8583000E0022026
:1011B80038BD0220FCE700BF0001005000070050C6
:1011C8000003005040F2152399420FD040F21B3320
:1011D800994207D040F20F1399420BD00368D3F815
:1011E800800070470368D3F88C0070470368D3F811
:1011F800880070470368D3F884007047F0B583B05F
:1012080000230193426990F85830012B00F0F182D5
:1012180004460D46012380F85830AAB10B6A012B09
:1012280012D0826E002A40F0B9808366002343669C
:101238008B6A002B00F0AF800A6A013A03F07C0346
:101248001A43CB6A1A43AAE06B68092B00F0838023
:1012580023689A6812F0080F10D195F82520002A03
:1012680040F0BB80DA6822F4401295F8260095F821
:101278002410090541EA40510A43DA60226893685C
:1012880013F0040300D00123966816F0080600D076
:101298000126002B40F04081002E40F07B81AB6A94
:1012A8001BB1EB6A002B40F0A78095F82530012B85
:1012B80000F09C80D36823F00073D360002795F872
:1012C8003030012B00F0A7802268136923F0020355
:1012D8001361AA68B2F1004F00F0A980296820685C
:1012E800FFF754FE2268536923F0004353616A698B
:1012F8002168CB68C3F3C1035B009A40D5F810C0DE
:10130800BCF1040F00F0A180603151F82C00A64B0D
:101318000340286800F0F8400243134343F00043B9
:1013280041F82C3023682869AA69603353F82010E3
:1013380021F080710A4343F82020236828692A7F16
:10134800012A7FD0603353F8202022F00072324304
:1013580043F82020E1E0AA6ABAB12B689B0E5B0231
:1013680003F4785302F07C021343EA6A13432168BA
:10137800CA6C22F07B4222F46F0222F43F4222F030
:10138800FF021A43CA64636662E72B689B0E5B021E
:1013980003F47853EBE70A6A013A00E000222B686D
:1013A800C3F38463696801F01F018B401343A16E86
:1013B8000139A166626E1343636600297FF448AF62
:1013C8002168CA6C22F07B4222F46F0222F43F4269
:1013D80022F0FF021343CB643AE7DA6822F44012A2
:1013E80095F8261042EA4152DA6047E7D36843F09D
:1013F8000073D360002762E795F82570012F05D0A8
:10140800D36823F00073D360002758E7E36D43F0F7
:101418002003E36553E721680B6923F4FF736A6BC4
:10142800A86B0243134343F002030B6151E7002208
:1014380029682068FFF7AAFD2268536943F0004332
:10144800536154E74FF000767CE70B6E0A6EC2F3E7
:1014580084622B68C3F3120078BBC3F384639A4297
:1014680033D021684B6E4A6EC2F384622B68C3F393
:10147800120078BBC3F384639A4233D021688B6E21
:101488008A6EC2F384622B68C3F3120078BBC3F37D
:1014980084639A4233D02168CB6ECA6EC2F38462E9
:1014A8002B68C3F3120078BBC3F384639A4234D128
:1014B800CB6E23F00043CB662FE093FAA3F313B16E
:1014C800B3FA83F3CBE72023C9E70B6E23F000437D
:1014D8000B66C6E793FAA3F313B1B3FA83F3CBE72A
:1014E8002023C9E74B6E23F000434B66C6E793FA07
:1014F800A3F313B1B3FA83F3CBE72023C9E78B6EC9
:1015080023F000438B66C6E793FAA3F313B1B3FA4B
:1015180083F3CBE72023C9E7002723689A6812F0F2
:10152800010F10D12A68E8682049884234D0D3F8DE
:10153800B010C2F3120221EA0202C3F8B020EA682E
:101548001A4B9A4242D02B68194A13421CD022687F
:10155800B2F1A04F00F0EC8016498A4200F0E58015
:101568001549896801F0E070144DAB4200F0E28043
:10157800134DAB4200F0DE80124DAB4200F00B8100
:10158800114DAB4200F01E81002384F858303846D4
:1015980003B0F0BD0027C0E7D3F8B010C2F31202C1
:1015A8000A43C3F8B020CAE700F0FF0300007F40F9
:1015B800000008800001005000070050000021C30F
:1015C8001000C090000052C7000084CB20682B6830
:1015D800C3F312063EBB9A0E013202F01F02092A1B
:1015E8008CBF00220122002A55D05EBB990E013122
:1015F800890601F0F8418EBB4FEA936C0CF1010C9F
:101608000CF01F0C012202FA0CF21143AEBB9B0E28
:10161800013303F01F0303EB43031B051943AA68B7
:10162800FFF7B4FC8FE793FAA3F24AB1B2FA82F259
:10163800013202F01F02092A8CBF00220122D2E7E0
:101648002022F5E793FAA3F131B1B1FA81F1013122
:10165800890601F0F841CEE72021F8E793FAA3F2D2
:101668004AB1B2FA82F2013202F01F024FF0010CC5
:101678000CFA02F2C9E72022F5E793FAA3F343B183
:10168800B3FA83F3013303F01F0303EB43031B0592
:10169800C4E72023F6E7E6B9990E0131890601F07F
:1016A800F84116BB4FEA936C0CF1010C0CF01F0CBF
:1016B800012202FA0CF2114336BB9B0E013303F0F0
:1016C8001F0303EB43031E3B1B0543F00073194341
:1016D800A5E793FAA3F131B1B1FA81F10131890695
:1016E80001F0F841DDE72021F8E793FAA3F24AB1C7
:1016F800B2FA82F2013202F01F024FF0010C0CFA2A
:1017080002F2D8E72022F5E793FAA3F35BB1B3FA24
:1017180083F3013303F01F0303EB43031E3B1B0555
:1017280043F00073D3E72023F3E701F5007118E7CE
:10173800314916E711F4000F7FF41EAFB2F1A04F44
:1017480003D02E4B9A427FF41FAFB2F1A04F19D0AD
:101758002B4B9A4214D02B4A40F40000936823F094
:10176800E07318439060284B1B689B09274AA2FB2B
:1017780003239B0903EB43039B001833019306E003
:101788001D4AE9E71C4AE7E7019B013B0193019BDE
:10179800002BF9D1F8E611F0807F7FF4F1AEB2F1B9
:1017A800A04F0DD0164B9A4208D0164A40F08070D0
:1017B800936823F0E07318439060E5E60E4AF5E776
:1017C8000D4AF3E711F4800F7FF4DEAE0C4B9A421A
:1017D8003FF4DAAEB2F1A04F08D00A4A40F48000D4
:1017E800936823F0E07318439060CDE602F54072E9
:1017F800F4E70227CBE600BF0003005000060050C4
:10180800000100500007005028000020632D3E050D
:10181800104B1B680BB90120704710B504464FF4F4
:101828007A70B0FBF3F30C4A1068B0FBF3F001F0E8
:101838004BFB68B90F2C01D901200AE00022214690
:101848004FF0FF3001F02CFB044B1C60002000E03F
:10185800012010BD00000020280000200400002006
:1018680010B5032001F00AFB0120FFF7D1FF10B1EA
:101878000124204610BD0446FFF782F9F9E700006D
:10188800034A1368034909680B441360704700BF93
:10189800FC03002000000020014B1868704700BFBF
:1018A800FC03002038B50446FFF7F6FF0546B4F1FF
:1018B800FF3F02D0044B1B681C44FFF7EDFF401BA1
:1018C800A042FAD338BD00BF00000020124BDA68EE
:1018D80002F00302DB68C3F303130133032A11D0B8
:1018E8000E48B0FBF3F00C4BDB68C3F3062303FB95
:1018F80000F0094BDB68C3F3416301335B00B0FBC5
:10190800F3F070470648B0FBF3F0034BDB68C3F312
:10191800062303FB00F0ECE7001002400024F4006B
:1019280000127A00002800F0548270B582B0044694
:10193800036813F0010F37D0A44A936803F00C032F
:10194800D26802F003020C2B23D0082B23D0636843
:10195800B3F5803F4ED0B3F5A02F51D09B4B1A68FA
:1019680022F480321A601A6822F480221A606368AE
:10197800002B52D0FFF790FF0546944B1B6813F4D9
:10198800003F11D1FFF788FF401B6428F5D90320D9
:1019980028E2032AD9D18D4B1B6813F4003F03D0EA
:1019A8006368002B00F01782236813F0020F5DD0E4
:1019B800864A936803F00C03D26802F003020C2BEA
:1019C8003AD0042B3AD0E368002B75D07F4A1368CD
:1019D80043F480731360FFF75FFF05467B4B1B687A
:1019E80013F4806F5FD1FFF757FF401B0228F5D92A
:1019F8000320F7E1754A136843F480331360B6E7B0
:101A080003F18043A3F53C331A6842F480221A603C
:101A18001A6842F480321A60A9E7FFF73DFF0546CD
:101A28006A4B1B6813F4003FBED0FFF735FF401B1D
:101A38006428F5D90320D5E1022AC2D1634B1B687B
:101A480013F4806F03D0E368002B00F0C6815F4A6F
:101A5800536823F0FE43216943EA016353605C4BFA
:101A68001868FFF7D5FE002840F0B981236813F005
:101A7800080F4CD063699BB3544AD2F8943043F0B2
:101A88000103C2F89430FFF707FF05464F4BD3F820
:101A9800943013F0020F3AD1FFF7FEFE401B0228E4
:101AA800F4D903209EE1494A536823F0FE43216993
:101AB80043EA01635360D9E7444A136823F4807307
:101AC8001360FFF7E9FE0546404B1B6813F4806F6F
:101AD800CCD0FFF7E1FE401B0228F5D9032081E1B5
:101AE8003A4AD2F8943023F00103C2F89430FFF751
:101AF800D3FE0546354BD3F8943013F0020F06D0C9
:101B0800FFF7CAFE401B0228F4D903206AE12368C4
:101B180013F0040F00F081802C4B9B6D13F0805F55
:101B280036D12A4B9A6D42F080529A659B6D03F02C
:101B380080530193019B0125264B1B6813F4807F7A
:101B480028D0A368012B39D0052B45D01F4BD3F8DB
:101B5800902022F00102C3F89020D3F8902022F0C0
:101B68000402C3F89020A368002B43D0FFF794FE2B
:101B78000646164BD3F8903013F0020F4CD1FFF7FE
:101B88008BFE801B41F288339842F2D9032029E169
:101B98000025D1E70F4A136843F480731360FFF7F9
:101BA8007BFE06460B4B1B6813F4807FC9D1FFF7F9
:101BB80073FE801B0228F5D9032013E1034AD2F8EB
:101BC800903043F00103C2F89030CCE70010024097
:101BD80004000020007000408A4BD3F8902042F0A7
:101BE8000402C3F89020D3F8902042F00102C3F811
:101BF8009020B8E7FFF750FE0646824BD3F89030A6
:101C080013F0020F08D0FFF747FE801B41F288331C
:101C18009842F2D90320E5E0E5B9236813F0200FD4
:101C280035D0A369E3B1774AD2F8983043F001037D
:101C3800C2F89830FFF730FE0546724BD3F898305B
:101C480013F0020F23D1FFF727FE401B0228F4D917
:101C58000320C7E06B4A936D23F080539365DCE75C
:101C6800684AD2F8983023F00103C2F89830FFF799
:101C780013FE0546634BD3F8983013F0020F06D0D5
:101C8800FFF70AFE401B0228F4D90320AAE0E36903
:101C9800002B00F0A6805B4A926802F00C020C2A26
:101CA80069D0022B1DD0574B1A6822F080721A6037
:101CB800DA6822F00302DA60DA6822F0887222F425
:101CC8008032DA60FFF7E8FD04464E4B1B6813F0DC
:101CD800007F4ED0FFF7E0FD001B0228F5D9032056
:101CE80080E0484A136823F080731360FFF7D4FD3F
:101CF8000546444B1B6813F0007F06D0FFF7CCFD68
:101D0800401B0228F5D903206CE03E4AD3683E49BF
:101D18001940236A606A013843EA0013A06A43EA5B
:101D28000023206B4008013843EA4053606B4008A9
:101D3800013843EA4063E06A43EAC0631943D1606B
:101D4800136843F080731360D36843F08073D360E3
:101D5800FFF7A2FD04462B4B1B6813F0007F06D14A
:101D6800FFF79AFD001B0228F5D903203AE000206E
:101D780038E0002036E0012B36D0224BDB6803F038
:101D88000301226A914231D103F0F002616A0139FC
:101D9800B2EB011F2CD103F4FE42A16AB2EB012F72
:101DA80028D103F07842E16AB2EBC16F24D103F481
:101DB800C001226B5208013AB1EB425F1ED103F019
:101DC800C063626B5208013AB3EB426F18D100202E
:101DD80008E001207047012004E0012002E0012012
:101DE80000E0002002B070BD0120FBE70120F9E708
:101DF8000120F7E70120F5E70120F3E70120F1E7EB
:101E08000120EFE7001002400C809F011E4B9B68E9
:101E180003F00C03042B33D01B4B9B6803F00C031B
:101E2800082B2FD0184B9B6803F00C030C2B01D008
:101E380000207047144BDA6802F00302DB68C3F332
:101E480003130133032A11D01048B0FBF3F00E4BF3
:101E5800DB68C3F3062303FB00F00B4BDB68C3F31B
:101E6800416301335B00B0FBF3F070470848B0FBF7
:101E7800F3F0054BDB68C3F3062303FB00F0ECE744
:101E88000248704702487047001002400024F400DE
:101E980000127A00002800F0E680F8B50C460546E6
:101EA800744B1B6803F00F038B420BD2714A136803
:101EB80023F00F030B431360136803F00F038B42E7
:101EC80040F0D3802E6816F001065FD06B68032BB4
:101ED8002FD0022B4DD0684B1B6813F4806F00F095
:101EE800C680FFF793FF654B98424DD9624A9368C5
:101EF80023F0F00343F08003936080265E4A9368E2
:101F080023F0030369680B439360FFF7C5FC07469A
:101F1800594B9B6803F00C036A68B3EB820F35D00A
:101F2800FFF7BAFCC01B41F288339842F0D903206E
:101F380078E0514B1B6813F0007F01D1012071E05C
:101F4800FFF7C4FC4D4B98421AD94B4B9B6813F0D2
:101F5800F00F05D02E6816F00206CFD0AB688BB90B
:101F6800454A936823F0F00343F08003936080268A
:101F7800C4E7414B1B6813F4003FB2D1012051E084
:101F88000026BBE70026B9E70026B7E72B6813F061
:101F9800020F48D013F0040F04D0374A936843F473
:101FA800E06393602B6813F0080F06D0324A9368F9
:101FB80023F47C5343F4E06393602F4A936823F03F
:101FC800F003A9680B4393602A4B1B6803F00F03C7
:101FD800A34230D82B6813F0040F06D0264A936822
:101FE80023F4E063E9680B4393602B6813F0080F50
:101FF80007D0214A936823F46053296943EAC1034F
:102008009360FFF703FF1C4B9B68C3F303131C4A41
:10201800D35C03F01F03D8401A4B18601A4B18689A
:10202800FFF7F6FBF8BD802ECED1134A936823F054
:10203800F0039360C8E70F4A136823F00F032343A4
:102048001360FFF729FC06460A4B1B6803F00F03D1
:10205800A342BFD0FFF720FC801B41F2883398428F
:10206800F2D90320DEE7012070470120DAE70120DA
:10207800D8E700BF002002400010024000B4C404AA
:10208800906300082800002004000020014B186815
:10209800704700BF2800002008B5FFF7F7FF054B81
:1020A8009B68C3F30223044AD35C03F01F03D840A0
:1020B80008BD00BF001002408863000808B5FFF79C
:1020C800E5FF054B9B68C3F3C223044AD35C03F0C6
:1020D8001F03D84008BD00BF0010024088630008F5
:1020E800F0B583B00446036813F4002F6ED0354B67
:1020F8009B6D13F0805F1ED1324B9A6D42F0805277
:102108009A659B6D03F080530193019B01262E4A2B
:10211800136843F480731360FFF7BEFB05462A4B30
:102128001B6813F4807F08D1FFF7B6FB401B022819
:10213800F5D9032502E00026E9E7002545BB214B38
:10214800D3F8903013F4407315D0226D9A4212D010
:102158001C4AD2F8903023F44073D2F8901041F41E
:102168008031C2F89010D2F8901021F48031C2F872
:102178009010C2F8903013F0010F10D145B9114AF0
:10218800D2F8903023F44073216D0B43C2F890309D
:10219800EEB10C4A936D23F08053936517E0FFF777
:1021A8007BFB0746074BD3F8903013F0020FE5D1BD
:1021B800FFF772FBC01B41F288339842F2D903251E
:1021C800DCE700BF001002400070004000252368D3
:1021D80013F0010F08D09F4AD2F8883023F0030388
:1021E80061680B43C2F88830236813F0020F08D0E7
:1021F800984AD2F8883023F00C03A1680B43C2F840
:102208008830236813F0040F08D0924AD2F8883037
:1022180023F03003E1680B43C2F88830236813F0D9
:10222800080F08D08B4AD2F8883023F0C003216900
:102238000B43C2F88830236813F0100F08D0854A82
:10224800D2F8883023F4407361690B43C2F88830B0
:10225800236813F0200F08D07E4AD2F8883023F480
:102268004063A1690B43C2F88830236813F0400F1C
:1022780008D0784AD2F8883023F44053E1690B43F8
:10228800C2F88830236813F0800F08D0714AD2F85A
:10229800883023F44043216A0B43C2F8883023680E
:1022A80013F4807F08D06B4AD2F8883023F4403387
:1022B800616A0B43C2F88830236813F4003F08D0E2
:1022C800644AD2F89C3023F00303A16A0B43C2F896
:1022D8009C30236813F4007F08D05E4AD2F8883017
:1022E80023F44023E16A0B43C2F88830236813F4CF
:1022F800806F0CD0574AD2F8883023F44013216BF2
:102308000B43C2F88830236BB3F5801F79D023685C
:1023180013F4006F0CD04F4AD2F8883023F44003EE
:10232800616B0B43C2F88830636BB3F5800F6DD0D7
:10233800236813F4805F0CD0464AD2F8883023F023
:102348004073A16B0B43C2F88830A36BB3F1807F55
:1023580061D0236813F4005F0CD03E4AD2F888306D
:1023680023F04063E16B0B43C2F88830E36BB3F1B1
:10237800006F55D0236813F4804F0CD0354AD2F83B
:10238800883023F04063216C0B43C2F88830236CFB
:10239800B3F1006F49D0236813F4004F0CD02D4AD5
:1023A800D2F8883023F04053616C0B43C2F8883070
:1023B800636CB3F1805F3DD0236813F4803F0CD089
:1023C800244AD2F8883023F04043A16C0B43C2F86A
:1023D8008830A36CB3F1804F31D0236813F4802F79
:1023E8000CD01C4AD2F89C3023F44013E16C0B4308
:1023F800C2F89C30E36CB3F5001F25D0284603B023
:10240800F0BDD36843F48013D36080E7D36843F406
:102418008013D3608CE7D36843F48013D36098E7C4
:10242800D36843F48013D360A4E7D36843F48013DC
:10243800D360B0E7D36843F48033D360BCE7D36894
:1024480043F48033D360C8E7D36843F48013D36080
:10245800D4E700BF0010024010B4064C616941F097
:10246800010161610260BFF36F8F43605DF8044B47
:10247800704700BF00200240094A536943F4802393
:102488005361EFF3108C72B6402351F8042B40F8D7
:10249800042B013B13F0FF03F7D18CF3108870472E
:1024A80000200240094B5B69002B01DB00207047CC
:1024B800064B074A9A6002F188329A605B69002BE2
:1024C80001DB002070470120704700BF0020024058
:1024D80023016745054B5A6942F000425A615B691E
:1024E800002B01DB012070470020704700200240CC
:1024F80038B50546FFF7D0F90446134B1B6913F4AA
:10250800803F06D0FFF7C8F9001BA842F5D9032081
:1025180038BD0D4B1B694CF2FA32134009D10A4BF6
:102528001B6913F0010F0CD0074B01221A61002020
:10253800EEE706494A681A434A60034A13610120D4
:10254800E6E70020E4E700BF002002400800002082
:10255800F8B516461B4A1278012A31D004460D46B2
:102568001F46184B01221A704FF47A70FFF7C0FF0C
:1025780080B9144B58608CB1631E012B15D9002407
:102588004FF47A70FFF7B4FF24B10F4A536923EA76
:10259800040353610B4B00221A70F8BD32463B46C8
:1025A8002846FFF759FF0124EAE731462846FFF796
:1025B80063FF022C01D00024E2E74FF48024DFE718
:1025C8000220EAE70800002000200240114B1B6AA5
:1025D80013F4800F10D010F0010F04D00D4A536986
:1025E80043F00403536110F0020F0CD0094A5369F9
:1025F80043F40043536106E0064A536943F4004339
:1026080043F004035361034A536943F4803353612D
:10261800704700BF00200240154B1B6A13F4800F5F
:1026280016D1134A536923F400635361104B5A6956
:1026380022F47E72C00000F4FF6002435A615A69B6
:1026480042F002025A615A6942F480325A61704774
:1026580011F0010F05D0064A536923F40063536152
:10266800E4E7034A536943F400635361DEE700BFBC
:1026780000200240164B1B7FDBB2012B01D0032B3D
:1026880010D1144A116821F400711160116841F4E5
:1026980000611160116821F400611160116841F452
:1026A80000711160023BDBB2012B03D9084B0022F9
:1026B8001A777047074B1A6842F480521A601A68F2
:1026C80022F480521A601A6842F480621A60EDE7B8
:1026D8000800002000200240F8B53A4B1B78012B77
:1026E8006DD004460E46374B01221A704FF47A70AB
:1026F800FFF7FEFE074600285CD1324B00225A60E5
:10270800314B1B6813F4007F2FD02F4B1B6813F439
:10271800806F26D02C4A136823F480631360294BFA
:1027280003221A772368012B31D04FF0FF3333602F
:10273800A568A368E2681344AB4239D961682846A2
:10274800FFF76AFF4FF47A70FFF7D2FE1E4A53690B
:1027580023F47E7323F002035361074638BB013527
:10276800E7E7184B01221A77DCE7174B1B6813F4CD
:10277800806F08D0144A136823F480631360114BE8
:1027880002221A77CEE70F4B00221A77CAE7606851
:10279800FFF71CFF4FF47A70FFF7AAFE07460A4AB4
:1027A800536923F4004323F00403536100E03560C8
:1027B800FFF760FF034B00221A703846F8BD022766
:1027C800FBE700BF0800002000200240F0B583B0FE
:1027D800002362E085685E000324B44025EA04050E
:1027E800CC68B4402C438460456825EA0C054C68E5
:1027F800C4F300149C402C4344605FE0DD080835B6
:1028080050F8254003F0070C4FEA8C0C4FF00F0EE0
:102818000EFA0CFE24EA0E0E0C6904FA0CF444EAD3
:102828000E0440F8254060E0052400E0002404FA86
:102838000EF42C430CF1020C554D45F82C40554C28
:10284800A568D44325EA02064F6817F4801F01D013
:1028580042EA05064F4DAE60ED6804EA05064F688A
:1028680017F4001F01D042EA05064A4DEE606D6874
:1028780004EA05064F6817F4003F01D042EA05064E
:10288800444D6E602D682C404E6816F4803F01D090
:1028980042EA05043F4A146001330A6832FA03F435
:1028A80074D04FF0010C0CFA03FC1CEA0202F3D0BE
:1028B8004C6804F00304013C012C8BD94C6804F0EB
:1028C8000304032C0CD0C4685D004FF0030C0CFA11
:1028D80005FC24EA0C0C8C68AC4044EA0C04C46087
:1028E8004C6804F00304022C88D004684FEA430EB5
:1028F8004FF0030C0CFA0EFC24EA0C0C4C6804F0A4
:10290800030404FA0EF444EA0C0404604C6814F45A
:10291800403FC1D0204C256E45F001052566246E48
:1029280004F001040194019C4FEA930C0CF1020598
:10293800174C54F8255003F0030E4FEA8E0E0F245F
:1029480004FA0EF425EA0405B0F1904F3FF46EAF97
:10295800124CA04212D004F58064A04210D004F5B5
:102968008064A0420ED004F58064A0420CD004F527
:102978008064A0423FF458AF062458E7012456E784
:10298800022454E7032452E7042450E703B0F0BDBF
:10299800000001400004014000100240000400480B
:1029A8000369194201D001207047002070470AB11D
:1029B8008161704781627047436901EA030221EA35
:1029C800030141EA02418161704730B4C46C056D6E
:1029D8006560446D14B1846DC56D6560446C04F028
:1029E8001F0C012404FA0CF4056C6C600468636025
:1029F8008368102B05D0036899600368DA6030BCDF
:102A0800704703689A600368D960F8E703680C4A5E
:102A1800934213D80B49DBB2083B0B4AA2FB0323B2
:102A2800426C22F003020A448264084AC264C3F377
:102A38000413012202FA03F3036570470449EAE725
:102A48000704024000080240CDCCCCCC80080240EC
:102A5800200802400379074A1A4492004265064A50
:102A68008265013B03F01F03012202FA03F3C365E9
:102A7800704700BF3F8200104009024000285BD029
:102A880010B5044601682D4B99423DD82C4B0B4498
:102A98002C4AA2FB03231B099B0043642A4B0364B3
:102AA800022384F825300A6822F4FF4222F07002DB
:102AB800A368E06803432069034360690343A0698E
:102AC8000343E0690343206A034313430B60204632
:102AD800FFF79CFFA368B3F5804F20D0A36C227941
:102AE8001A60E36C226D5A606368013B032B19D9A5
:102AF80000236365A365E3650020E063012384F890
:102B0800253084F8240010BD104B0B440D4AA2FB5D
:102B180003231B099B0043640D4B0364C0E7002398
:102B28006360DBE72046FFF795FF636D00221A60BC
:102B3800A36DE26D5A60DFE7012070470704024089
:102B4800F8FFFDBFCDCCCCCC00000240F8FBFDBFA8
:102B58000004024070B5044690F82400012820D0F3
:102B6800012084F8240094F82500C0B2012804D07C
:102B7800002384F82430022070BD022084F8250048
:102B88000025E5632668306820F0010030602046A3
:102B9800FFF71BFF2268136843F001031360284600
:102BA800EAE70220E8E7034690F82520D2B2022A95
:102BB80009D00422C2630120012283F825200022C3
:102BC80083F82420704701680A6822F00E020A6020
:102BD800816C0A6822F480720A6001680A6822F02F
:102BE80001020A60426C02F01F01006C01228A4057
:102BF8004260DA6C196D51605A6D42B1116821F466
:102C0800807111609A6DD96D51600020D4E7002061
:102C1800D2E738B5036C196804682568436C03F07B
:102C28001F0304229A400A4215D015F0040F12D04F
:102C3800236813F0200F03D1236823F004032360D3
:102C4800436C03F01F02016C042393404B60036B39
:102C580003B1984738BD02229A400A421CD015F0A9
:102C6800020F19D0236813F0200F06D1236823F030
:102C78000A032360012380F82530436C03F01F0208
:102C8800016C022393404B60002380F82430C36A10
:102C9800002BDFD09847DDE7082202FA03F30B4246
:102CA800D8D015F0080FD5D0236823F00E03236081
:102CB800436C03F01F03016C012202FA03F34B601B
:102CC800C26380F82520002380F82430436B002B52
:102CD800C0D09847BEE7C06B70470000002836D1C7
:102CE8003E4B1B6803F4C063B3F5806F08D03B4AC2
:102CF800D2F8803023F48073C2F880300020704707
:102D0800364AD2F8803023F48073C2F880301368D2
:102D180023F4C06343F400731360314B1B68322201
:102D280002FB03F32F4AA2FB03239B0C013300E0B1
:102D3800013B2A4A526912F4806F01D0002BF7D167
:102D4800264B5B6913F4806F44D100207047B0F5BF
:102D5800007F08D0214A136823F4C06343F48063DA
:102D68001360002070471D4B1B6803F4C063B3F564
:102D7800806F08D0194AD2F8803043F48073C2F8C3
:102D8800803000207047154AD2F8803043F48073B1
:102D9800C2F88030136823F4C06343F400731360EF
:102DA8000F4B1B68322202FB03F30E4AA2FB0323DC
:102DB8009B0C013300E0013B084A526912F4806F12
:102DC80001D0002BF7D1054B5B6913F4806F03D159
:102DD80000207047032070470320704700700040B0
:102DE8002800002083DE1B43024A936843F4804393
:102DF8009360704700700040002807DB00F01F0256
:102E0800400901239340024A42F82030704700BF2E
:102E180000E100E0002808DB0901C9B200F16040C8
:102E280000F5614080F80013704700F00F000901B9
:102E3800C9B2014B1954704714ED00E000B500F019
:102E48000700C0F1070CBCF1040F28BF4FF0040CB9
:102E5800031D062B0FD9C31E4FF0FF3E0EFA0CF0D0
:102E680021EA000199400EFA03FE22EA0E0241EA25
:102E780002005DF804FB0023EEE70000074AD36870
:102E880023F4E0631B041B0C000200F4E06003431E
:102E980043F0BF6343F40033D360704700ED00E0B4
:102EA80010B50446054BD868C0F30220FFF7C6FFEB
:102EB80001462046FFF7AEFF10BD00BF00ED00E061
:102EC80008B5FFF799FF08BD0138B0F1807F0BD234
:102ED8004FF0E0235861054AF02182F823100020C2
:102EE800986107221A6170470120704700ED00E0E1
:102EF8002DE9F04782B00546884617461E46FEF77C
:102F0800CBFC0A9B1B1A03EB0609FEF7C5FC82469D
:102F1800284B1B68C3F3CB3309FB03F301932B68DE
:102F28009C6838EA04040CBF01230023BB423DD04F
:102F3800B6F1FF3FF3D0FEF7AFFCA0EB0A0048451F
:102F480007D2019A02B14A46019B013B019391467F
:102F5800E5E72A68536823F0E00353606B68B3F52C
:102F6800827F0BD0AB6AB3F5005F14D0012385F8DC
:102F78005D30002385F85C30032018E0AB68B3F5BA
:102F8800004F02D0B3F5806FECD12A68136823F0A4
:102F980040031360E6E72A68136823F400531360BC
:102FA8002A68136843F400531360DFE7002002B077
:102FB800BDE8F087280000202DE9F04782B00646DA
:102FC8000C4615461F4600238DF80330FEF764FCB7
:102FD8000A9B1B1A03EB0708FEF75EFC8146D6F82E
:102FE80000A0304B1B6803EB8303C3EBC3031B0D2B
:102FF80008FB03F3019302E0B7F1FF3F12D13368F6
:103008009B6803EA040CAC4547D0B4F5C06FF3D114
:10301800002DF1D19AF80C30DBB28DF803309DF811
:103028000330E9E7FEF738FCA0EB0900404507D27A
:10303800019A02B14246019B013B01939046DEE7AB
:103048003268536823F0E00353607368B3F5827FF6
:103058000BD0B36AB3F5005F14D0012386F85D3056
:10306800002386F85C30032018E0B368B3F5004FFE
:1030780002D0B3F5806FECD13268136823F04003B7
:103088001360E6E73268136823F40053136032686C
:10309800136843F400531360DFE7002002B0BDE873
:1030A800F08700BF2800002070B582B004460D46A6
:1030B800164600920B4600224FF4C051FFF77CFFE2
:1030C800B0B900962B46002280212046FFF710FF5A
:1030D800A8B900962B4600224FF4C0612046FFF79E
:1030E8006BFF50B1236E43F020032366032004E0F6
:1030F800236E43F020032366032002B070BD236EC5
:1031080043F0200323660320F7E770B582B0044636
:103118000D4616464368B3F5827F0DD000962B46C0
:10312800002280212046FFF7E3FE90B96368B3F5DB
:10313800827F14D002B070BD8368B3F5004F02D00F
:10314800B3F5806FEAD12268136823F04003136057
:10315800E4E7236E43F0200323660320EAE7A3682D
:10316800B3F5004F02D0B3F5806FE3D100962B463C
:1031780000224FF4C0612046FFF71EFF0028D9D077
:10318800236E43F0200323660320D3E700286FD083
:1031980010B50446436A33B94368B3F5827F05D056
:1031A8000023C36102E00023036143610023A3629B
:1031B80094F85D30002B52D0022384F85D302268E9
:1031C800136823F040031360E368B3F5E06F4CD94C
:1031D8000022B3F5706F04D0B3F5E06F01D000237F
:1031E800A362636803F48273A16801F404410B438A
:1031F800216901F002010B43616901F001010B43F0
:10320800A16901F400710B43E16901F038010B4336
:10321800216A01F080010B43A16A01F40051206882
:103228000B430360638B03F00403616A01F0100130
:103238000B43616B01F008010B43E16801F4706115
:103248000B4321681A434A602268D36923F4006358
:10325800D36100202066012384F85D3010BD84F816
:103268005C302046FDF720FAA6E74FF48052B0E71D
:10327800012070472DE9F8431F46089D90F85C30FF
:10328800012B00F06481044688469146012380F8AA
:103298005C30FEF701FB064694F85D30DBB26268ED
:1032A800012B0AD0B2F5827F40F03881A268002A4B
:1032B80040F03D81042B40F03C81B8F1000F00F054
:1032C8003A81B9F1000F00F03881002F00F0378102
:1032D80094F85D30DBB2042B02D0052384F85D300E
:1032E80000232366C4F84090A4F84670A4F84470FC
:1032F800C4F83880E787A787E3642365E368B3F5F4
:10330800E06F01D8012F23D92268536823F4805332
:10331800536023681A6812F0400F03D11A6842F00C
:1033280040021A60E368B3F5E06F58D963680BB1DF
:10333800012F0BD1A26B23681288DA60A36B0233CA
:10334800A363E38F9BB2013B9BB2E387012731E084
:103358002268536843F480535360DAE7A26B1288FB
:10336800DA60A36B0233A363E38F9BB2013B9BB28A
:10337800E387002723689A6812F0010F11D0B4F888
:10338800462092B26AB1DA68236C1A80236C023341
:103398002364B4F846309BB2013B9BB2A4F8463094
:1033A8000127FEF779FA831BAB4203D3B5F1FF3F40
:1033B80040F0C780E38F9BB22BB9B4F846309BB27C
:1033C800002B00F0A18023689A6812F0020FD1D078
:1033D800E28F92B2002ACDD0002FCBD0BEE763682F
:1033E8000BB1012F0FD1E38F9BB2012B0DD9A26B2B
:1033F80023681288DA60A36B0233A363E38F9BB25E
:10340800023B9BB2E387012749E0A26B236812784D
:103418001A73A36B0133A363E38F9BB2013B9BB287
:10342800E387F0E7E28F92B2012A0CD9A26B1288E7
:10343800DA60A36B0233A363E38F9BB2023B9BB2B8
:10344800E38700273DE0A26B12781A73A36B013360
:10345800A363E38F9BB2013B9BB2E387002730E075
:103468002268536843F48053536001270DE0226CAF
:103478001B7B1370236C01332364B4F846309BB272
:10348800013B9BB2A4F846300127FEF705FA801BE2
:10349800A84202D3B5F1FF3F55D1002D55D0E38F97
:1034A8009BB223B9B4F846309BB2002B2CD02368CA
:1034B8009A6812F0020F04D0E28F92B20AB1002F7C
:1034C800B0D123689A6812F0010FDED0B4F8462014
:1034D80092B2002AD9D0B4F8462092B2012AC6D9AD
:1034E800DA68236C1A80236C02332364B4F84630FC
:1034F8009BB2023B9BB2A4F84630B4F846309BB26C
:10350800012BADD90127C0E7324629462046FFF7EF
:10351800CBFD20B120232366012000E002200123F7
:1035280084F85D30002384F85C30BDE8F88302201D
:10353800F5E70220F3E70120F1E70120EFE701209A
:10354800EDE70320EBE70320E9E70320E7E70220A4
:10355800EBE72DE9F04383B00446884691461D46C3
:103568004068B0F5827F43D094F85C30012B00F0BE
:10357800C380012384F85C30FEF78EF9074694F87F
:103588005D60F6B2012E40F0A480B8F1000F00F0A3
:10359800A180B9F1000F00F09D80042384F85D300C
:1035A80000232366C4F84080A4F84490A4F8469009
:1035B800A363A387E387E3642365E368B3F5E06F58
:1035C80024D92268536823F480535360A368B3F561
:1035D800004F21D023681A6812F0400F03D11A68EF
:1035E80042F040021A60E368B3F5E06F29D94AE077
:1035F800A368002BB8D1042384F85D3000951346E6
:103608000A462046FFF736FE064669E022685368F8
:1036180043F480535360D9E72268136823F04003CA
:1036280013602268136823F480431360D2E7FEF71F
:1036380033F9C01BA84202D3B5F1FF3F54D1002D86
:1036480054D0B4F846309BB2002B36D023689A6821
:1036580012F0010FEBD0226C1B7B1370236C01332B
:103668002364B4F846309BB2013B9BB2A4F84630C1
:10367800E7E7FEF711F9C01BA84202D3B5F1FF3FF7
:1036880036D1002D36D0B4F846309BB2ABB12368A2
:103698009A6812F0010FECD0DA68236C1A80236C58
:1036A80002332364B4F846C01FFA8CFC0CF1FF3CCB
:1036B8001FFA8CFCA4F846C0E5E73A46294620469E
:1036C800FFF723FD08B120232366236E13B90026D4
:1036D80000E00226012384F85D30002384F85C3082
:1036E800304603B0BDE8F0830326F3E70326F1E78D
:1036F8000326EFE70326EDE70226F1E730B4036A75
:1037080023F001030362026A4468836923F4803367
:1037180023F073030D681D4322F002028B681343E4
:10372800204A904213D002F5006290420FD002F571
:10373800406290420BD002F58062904207D002F5B9
:103748008062904203D002F50062904205D123F0D6
:103758000803CA681A4322F00403124A904213D09D
:1037680002F5006290420FD002F5406290420BD001
:1037780002F58062904207D002F58062904203D041
:1037880002F50062904205D124F440744A6922434C
:103798008C691443446085614A684263036230BCA3
:1037A800704700BF002C014030B4036A23F48073D3
:1037B8000362036A4468C26922F4803222F0730209
:1037C8000D68154323F400738A6843EA02231C4AF0
:1037D800904207D002F50062904203D002F5E05211
:1037E800904206D123F40063CA6843EA022323F413
:1037F8008063134A904213D002F5006290420FD0C2
:1038080002F5406290420BD002F58062904207D0E8
:1038180002F58062904203D002F50062904207D11F
:1038280024F440524C6942EA04128C6942EA0414B6
:103838004460C5614A68C263036230BC704700BF18
:10384800002C014030B4036A23F480530362036AF6
:103858004468C26922F0807222F4E6420D6842EAA6
:10386800052223F400538D6843EA05331B4DA84213
:1038780007D005F50065A84203D005F5E055A84234
:1038880006D123F40043CD6843EA053323F480438B
:10389800124DA84213D005F50065A8420FD005F5D2
:1038A8004065A8420BD005F58065A84207D005F50C
:1038B8008065A84203D005F50065A84207D124F425
:1038C800404C4C694CEA841C8C694CEA8414446072
:1038D800C2614A680264036230BC7047002C014030
:1038E80030B4036A23F480330362036A4468026DC8
:1038F80022F4803222F070020D68154323F400335D
:103908008A6843EA0243114A904213D002F50062E2
:1039180090420FD002F5406290420BD002F58062CF
:10392800904207D002F58062904203D002F500620F
:10393800904204D124F480344A6944EA0224446061
:1039480005654A688264036230BC7047002C0140F8
:1039580030B4036A23F480130362036A4468026D77
:1039680022F0807222F4E0420D6842EA052223F434
:1039780000138D6843EA0553114DA84213D005F58D
:103988000065A8420FD005F54065A8420BD005F5A3
:103998008065A84207D005F58065A84203D005F5E3
:1039A8000065A84204D124F480244D6944EA8524A2
:1039B800446002654A68C264036230BC704700BF55
:1039C800002C014010B4036A046A24F00104046264
:1039D800846924F0F00C4CEA021223F00A030B432A
:1039E800826103625DF8044B704710B4036A23F0E8
:1039F800100303628469036A24F4704C4CEA0232AF
:103A080023F0A00343EA0113826103625DF8044BCB
:103A18007047836823F4401323F070030B4343F08B
:103A2800070383607047000090F83D30DBB2012B3C
:103A380035D1022380F83D3003681C4A934220D0D8
:103A4800B3F1804F1DD0A2F59432934219D002F5FC
:103A58008062934215D002F58062934211D002F53C
:103A6800943293420DD002F54062934209D002F598
:103A78008052934205D01A6842F001021A60002071
:103A8800704799680A4A0A40062A0AD0B2F5803F68
:103A980009D01A6842F001021A600020704701201C
:103AA8007047002070470020704700BF002C01407D
:103AB8000700010090F83D30DBB2012B3AD1022318
:103AC80080F83D300268D36843F00103D36003688F
:103AD8001B4A934220D0B3F1804F1DD0A2F59432F7
:103AE800934219D002F58062934215D002F58062A4
:103AF800934211D002F5943293420DD002F5406200
:103B0800934209D002F58052934205D01A6842F0D8
:103B180001021A600020704799680A4A0A40062A7A
:103B28000AD0B2F5803F09D01A6842F001021A6043
:103B38000020704701207047002070470020704720
:103B4800002C014007000100704700000368364A56
:103B5800904216D0B0F1804F13D0A2F59432904223
:103B68000FD002F5806290420BD002F5806290423D
:103B780007D002F59432904203D002F5E052904209
:103B880003D123F070034A681343274A904222D096
:103B9800B0F1804F1FD0A2F5943290421BD002F5AD
:103BA8008062904217D002F58062904213D002F5ED
:103BB800943290420FD002F5406290420BD002F549
:103BC8008062904207D002F58062904203D002F5ED
:103BD8000062904203D123F44073CA68134323F070
:103BE80080034A69134303608B68C3620B6883626E
:103BF8000D4B984213D003F5006398420FD003F59C
:103C0800406398420BD003F58063984207D003F5D0
:103C18008063984203D003F50063984201D10B6991
:103C28000363012343617047002C014060B310B562
:103C3800044690F83D3013B3022384F83D30214602
:103C480051F8040BFFF782FF012384F8483084F809
:103C58003E3084F83F3084F8403084F8413084F8AE
:103C6800423084F8433084F8443084F8453084F88E
:103C7800463084F8473084F83D30002010BD80F885
:103C88003C30FCF7C1FDD7E70120704760B310B5A1
:103C9800044690F83D3013B3022384F83D302146A2
:103CA80051F8040BFFF752FF012384F8483084F8D9
:103CB8003E3084F83F3084F8403084F8413084F84E
:103CC800423084F8433084F8443084F8453084F82E
:103CD800463084F8473084F83D30002010BD80F825
:103CE8003C30FFF731FFD7E70120704730B4036A53
:103CF80023F010030362036A4468826922F0807229
:103D080022F4E6420D6842EA052223F020038D687A
:103D180043EA05131B4DA84207D005F50065A842E4
:103D280003D005F5E055A84206D123F08003CD68FD
:103D380043EA051323F04003124DA84213D005F5BA
:103D48000065A8420FD005F54065A8420BD005F5DF
:103D58008065A84207D005F58065A84203D005F51F
:103D68000065A84207D124F4406C4C694CEA840CE5
:103D78008C694CEA8404446082614A688263036205
:103D880030BC7047002C014038B590F83C30012B0E
:103D980000F0958004460D46012380F83C30142A33
:103DA80000F28880DFE802F00B8686861F8686860A
:103DB80034868686488686865D8686867100006893
:103DC800FFF79CFC2268936943F00803936122681B
:103DD800936923F0040393612268936929690B436B
:103DE8009361002067E00068FFF780FF226893690D
:103DF80043F4006393612268936923F480639361B9
:103E080022689369296943EA01239361002052E0FB
:103E18000068FFF7C9FC2268D36943F00803D3613F
:103E28002268D36923F00403D3612268D36929691E
:103E38000B43D36100203EE00068FFF703FD2268D2
:103E4800D36943F40063D3612268D36923F48063A0
:103E5800D3612268D369296943EA0123D361002029
:103E680029E00068FFF73CFD2268136D43F0080362
:103E780013652268136D23F0040313652268136D1C
:103E880029690B431365002015E00068FFF760FD02
:103E98002268136D43F4006313652268136D23F4DD
:103EA800806313652268136D296943EA012313654A
:103EB800002000E00120002384F83C3038BD0220B7
:103EC800FCE710B4846824F47F4C42EA03220A43D6
:103ED80042EA0C0282605DF8044B704790F83C306F
:103EE800012B00F09B8010B50446012380F83C307C
:103EF800022380F83D3002689068494B0340936084
:103F08000B68702B61D031D8502B78D00CD9602B2E
:103F18002AD1CA6849682068FFF767FD60212068D0
:103F2800FFF777FD002038E0402B0AD1CA684968BE
:103F38002068FFF747FD40212068FFF76AFD002051
:103F48002BE067D8202B07D003D9302B04D00120D1
:103F580023E00BB1102B05D119462068FFF759FD56
:103F680000201AE0012018E0012016E0B3F5005FF8
:103F780038D00ED92B4A9342EED015D92A4A93420B
:103F8800EAD010329342E7D0203A9342E4D001209D
:103F980003E0B3F5805F3FD10020012384F83D3072
:103FA800002384F83C3010BD203A9342D4D004D981
:103FB8001E4A9342D0D00120EFE7B3F5801FCBD043
:103FC800B3F1101FC8D00120E7E7CB684A688968B9
:103FD8002068FFF776FF2268936843F077039360C1
:103FE8000020DAE7CB684A6889682068FFF769FF2C
:103FF8002268936843F4804393600020CDE7CA6841
:1040080049682068FFF7DEFC50212068FFF701FDB2
:104018000020C2E70120C0E70120BEE70220704768
:104028008800CEFF40001000600010003000100033
:1040380001F01F014FF0010C0CFA01FC036A23EA9E
:104048000C030362036A8A4013430362704700004B
:1040580010B5044610293DD8DFE801F0093C3C3C86
:10406800203C3C3C273C3C3C2E3C3C3C350090F8FA
:104078003E30DBB2013B18BF0123002B40F09B8090
:10408800102900F28680DFE801F02C84848474848F
:104098008484788484847C848484800090F83F308D
:1040A800DBB2013B18BF0123E7E790F84030DBB2F1
:1040B800013B18BF0123E0E790F84130DBB2013B38
:1040C80018BF0123D9E790F84230DBB2013B18BF93
:1040D8000123D2E790F84330DBB2013B18BF01233C
:1040E800CBE7022384F83E3001222068FFF7A0FFC7
:1040F8002368344A934213D002F5006293420FD0EA
:1041080002F5406293420BD002F58062934207D0D9
:1041180002F58062934203D002F50062934203D114
:104128005A6C42F400425A642368264A934234D0B7
:10413800B3F1804F31D0A2F5943293422DD002F5DD
:104148008062934229D002F58062934225D002F51D
:104158009432934221D002F5406293421DD002F579
:104168008052934219D01A6842F001021A60002066
:1041780022E0022384F83F30B6E7022384F8403077
:10418800B2E7022384F84130AEE7022384F84230D4
:10419800AAE7022384F84330A6E799680A4A0A4046
:1041A800062A0AD0B2F5803F09D01A6842F0010207
:1041B8001A60002000E0012010BD0020FCE700206C
:1041C800FAE700BF002C01400700010038B504469B
:1041D8000D4600220068FFF72BFF23682C4A934204
:1041E80013D002F5006293420FD002F54062934269
:1041F8000BD002F58062934207D002F580629342A9
:1042080003D002F5006293420DD1196A41F21112EE
:10421800114208D1196A44F24442114203D15A6C3E
:1042280022F400425A642368196A41F211121142B9
:1042380008D1196A44F24442114203D11A6822F0A3
:1042480001021A6025B9012384F83E30002038BDE8
:10425800043D0C2D18D8DFE805F0071717170B17C2
:1042680017170F1717171300012384F83F30EDE7CE
:10427800012384F84030E9E7012384F84130E5E779
:10428800012384F84230E1E7012384F84330DDE775
:10429800002C014090F83C20012A4CD030B4034651
:1042A800012280F83C20022280F83D200068426804
:1042B8008468224DA84207D005F50065A84203D0BE
:1042C80005F5E055A84203D122F470024D682A434F
:1042D80022F0007222F070020D682A4342601A68C8
:1042E800164882421AD0B2F1804F17D0A0F5943008
:1042F800824213D000F5806082420FD000F58060C2
:1043080082420BD000F59430824207D000F540601D
:10431800824203D000F58050824204D124F0800408
:10432800896821439160012283F83D20002083F8A9
:104338003C0030BC70470220704700BF002C014091
:1043480090F83C30012B60D010B40246012380F86D
:104358003C30CB6823F440738868034323F48063BC
:104368004868034323F400630868034323F4805335
:104378000869034323F400534869034323F4804343
:10438800086B034323F47023886943EA00431068E9
:104398001F4CA04207D004F50064A04203D004F5E6
:1043A800E054A04203D123F08053CC692343184C36
:1043B800A04207D004F50064A04203D004F5E054FD
:1043C800A0421BD123F470038C6A43EA045323F000
:1043D80080730C6A234323F000734C6A23430C4C0C
:1043E800A04207D004F50064A04203D004F5E054CD
:1043F800A04203D123F00053C96A0B434364002051
:1044080082F83C005DF8044B70470220704700BFFB
:10441800002C014010B50446226852E8003F23F4FE
:10442800F07342E800310029F6D1226802F108034E
:1044380053E8003F23F0845323F00103083242E895
:1044480000310029F1D1E36E012B4DD023689B6820
:1044580013F0800F14D0226802F1080353E8003FDC
:1044680023F08003083242E800310029F3D1A36F1A
:1044780033B100229A63A06FFEF795FB00283DD167
:1044880023689B6813F0400F13D0226802F10803D9
:1044980053E8003F23F04003083242E80031002986
:1044A800F3D1E36F2BB100229A63E06FFEF77BFB39
:1044B80070BB0023A4F85630A4F85E3023680F229E
:1044C8001A62636EB3F1005F2CD02268936943F0DF
:1044D800080393612023C4F88430C4F8883000208E
:1044E800E066C4F88C0010BD226852E8003F23F053
:1044F800100342E800310029F6D1A7E7A06FFEF7C4
:10450800EAFB2028BCD11023C4F88C300320EAE74A
:10451800E06FFEF7E0FB2028CBD11023C4F88C30E5
:104528000320E0E72268936943F010039361CCE726
:1045380070B50446016883680269134342691343EE
:10454800C26913430868964A02401A430A602268FF
:10455800536823F44053E1680B435360A169226810
:10456800904B9A4201D0236A1943936823F06E4313
:1045780023F430630B4393602268D36A23F00F035C
:10458800616A0B43D3622368874A934210D0874AF3
:10459800934221D0864A934237D0864A93425CD0D0
:1045A800854A93426BD07F4A93427DD010223AE0ED
:1045B80002F55842D2F8882002F00302032A09D8EB
:1045C800DFE802F00204870601222CE004222AE038
:1045D800082228E0102226E002F5E632D2F88820E8
:1045E80002F00C020C2A0ED8DFE802F0070D0D0DC0
:1045F800090D0D0D750D0D0D0B00002213E00422A1
:1046080011E008220FE010220DE002F5E432D2F8A2
:10461800882002F03002202A5FD01AD8002A5ED003
:10462800102A5ED104225F498B4276D0E069B0F54A
:10463800004F00F0C980082A00F23481DFE812F048
:10464800F7001901F50032011C0132013201320173
:104658001F01302A47D10822E5E702F5E232D2F8F5
:10466800882002F0C002802A3FD004D8FAB3402A3A
:104678003FD10422D7E7C02A3DD10822D3E702F56B
:10468800E032D2F8882002F44072B2F5007F34D0CC
:1046980005D8A2B3B2F5807F33D10422C3E7B2F5BF
:1046A800407F30D10822BEE702F5C832D2F8882010
:1046B80002F44062B2F5006F27D005D83AB3B2F5DC
:1046C800806F26D10422AEE7B2F5406F23D10822CD
:1046D800A9E70222A7E70222A5E70222A3E7002210
:1046E800A1E710229FE710229DE702229BE7002204
:1046F80099E7102297E7102295E7022293E7002214
:1047080091E710228FE710228DE702228BE7002223
:1047180089E7102287E7102285E7082A00F2B2808D
:10472800DFE802F008B03BB038B0B0B005004FF495
:10473800004004E0FDF7B0FC002800F0A580626AA4
:104748001E4B33F81220B0FBF2F3656805EB450108
:10475800994200F29B80B3EB053F00F29980002656
:1047680033463146FBF734FD090241EA1061000285
:104778006B08C0182A46334641F10001FBF728FDB3
:10478800A0F540720E4B9A4200F284802368D860EC
:10479800304665E0FDF73AFBCEE70A48CFE700BFB1
:1047A800F369FFCF0080004000380140004400401A
:1047B80000480040004C0040005000406063000882
:1047C800FFFC0F000024F400082A65D8DFE802F097
:1047D800072705642A6464640B00354803E0FDF785
:1047E8005BFC00285AD0626A324B33F81230B0FBB7
:1047F800F3F06268530803EB4003B3FBF2F3A3F151
:1048080010014FF6EF7291424AD89AB222F00F0285
:10481800C3F3420313432268D360002020E0FDF76E
:104828004DFCDEE7FDF7F2FADBE7214803E0FDF790
:1048380033FC002838D0626A1E4B33F81230B0FBC4
:10484800F3F0636800EB5300B0FBF3F0A0F1100243
:104858004FF6EF739A4229D8236880B2D8600020B7
:104868000123A4F86A30A4F868300023236763673B
:1048780070BDFDF723FCDCE7FDF7C8FAD9E74FF474
:104888000040D8E70120EBE70020E9E70120E7E74F
:104898000120E5E70120E3E70120E1E70020DFE769
:1048A8000120DDE70120DBE70020D9E70120D7E779
:1048B8000024F40060630008836A13F0010F06D037
:1048C8000268536823F40033C16A0B435360836A58
:1048D80013F0020F06D00268536823F48033016B8B
:1048E8000B435360836A13F0040F06D002685368C1
:1048F80023F48023416B0B435360836A13F0080F42
:1049080006D00268536823F40043816B0B4353605D
:10491800836A13F0100F06D00268936823F480535B
:10492800C16B0B439360836A13F0200F06D00268B3
:10493800936823F40053016C0B439360836A13F06C
:10494800400F0AD00268536823F48013416C0B436C
:104958005360436CB3F5801F0BD0836A13F0800F4C
:1049680006D00268536823F40023C16C0B435360DC
:1049780070470268536823F4C003816C0B4353608B
:10498800EBE72DE9F84305460F4616469946DDF84C
:1049980020802B68DC6937EA04040CBF012400245A
:1049A800B44257D1B8F1FF3FF3D0FCF775FFA0EB45
:1049B800090040452FD8B8F1000F2CD02B681A6891
:1049C80012F0040FE5D0DA6912F4006FE1D04FF469
:1049D80000621A622A6852E8003F23F4D07342E862
:1049E80000310029F6D12A6802F1080353E8003F94
:1049F80023F00103083242E800310029F3D12023D3
:104A0800C5F88430C5F88830C5F88C30002385F89F
:104A1800803003201FE02A6852E8003F23F4D07357
:104A280042E800310029F6D12A6802F1080353E868
:104A3800003F23F00103083242E800310029F3D196
:104A48002023C5F88430C5F88830002385F88030E5
:104A5800032000E00020BDE8F88330B583B00446A9
:104A68000023C0F88C30FCF717FF0546226812684F
:104A780012F0080F0FD123681B6813F0040F18D128
:104A88002023C4F88430C4F888300020E06684F815
:104A9800800003B030BD6FF07E43009303460022D0
:104AA8004FF400112046FFF76CFF0028E3D00320E5
:104AB800EFE76FF07E4300932B4600224FF480010E
:104AC8002046FFF75EFF0028DAD00320E1E778B33D
:104AD80010B50446D0F884300BB32423C4F88430CE
:104AE8002268136823F0010313602046FFF720FDB6
:104AF800012813D0A36ABBB92268536823F49043F2
:104B080053602268936823F02A039360226813682D
:104B180043F0010313602046FFF79FFF10BD80F8A4
:104B28008030FBF78FFFD8E72046FFF7C5FEE3E7A5
:104B380001207047436E2BB90123A0F86A30A0F812
:104B48006830704730B403689A68C2F34262996863
:104B5800490F094D6B5CDB00084C615C93FBF1F37A
:104B6800A0F86A30AB5CDB00A25C93FBF2F3A0F820
:104B7800683030BC704700BF806300087863000865
:104B880090F88030012B18D0012380F8803024233E
:104B9800C0F8843003681A68196821F001011960A7
:104BA80022F000520023436601680A602022C0F800
:104BB800842080F88030184670470220704738B546
:104BC80090F88030012B1DD00446012380F88030F6
:104BD8002423C0F8843003681D681A6822F0010293
:104BE8001A600268936823F0604319439160FFF7E5
:104BF800A1FF23681D602023C4F88430002084F8B6
:104C0800800038BD0220FCE738B590F88030012BD1
:104C18001DD00446012380F880302423C0F8843056
:104C280003681D681A6822F001021A600268936816
:104C380023F0606319439160FFF77CFF23681D60D0
:104C48002023C4F88430002084F8800038BD022076
:104C5800FCE70000034AD2F8883043F47003C2F836
:104C68008830704700ED00E0BFF34F8F0549CA68F0
:104C780002F4E062044B1343CB60BFF34F8F00BFD5
:104C8800FDE700BF00ED00E00400FA050C4B4FF013
:104C9800050C83F874C0142083F875000021996707
:104CA8004FF07E52DA6783F880C083F88100C3F83A
:104CB8008410C3F88820002283F88C20704700BF36
:104CC80000040020FF2802D810B9012000E0FF20CE
:104CD800014B83F87500704700040020062802D8AD
:104CE80010B9012000E00620014B83F874007047DA
:104CF8000004002007EE900AF8EE677A014BC3ED36
:104D08001E7A704700040020014B83ED1F0A70478C
:104D180000040020FF2802D810B9012000E0FF207D
:104D2800014B83F88100704700040020062802D850
:104D380010B9012000E00620014B83F8800070477D
:104D48000004002007EE900AF8EE677A014BC3EDE5
:104D5800217A704700040020014B83ED220A704736
:104D68000004002020B9074B002283F88C207047EC
:104D7800012801D000BF7047024B012283F88C2024
:104D8800704700BF00040020214B00221A605A60BF
:104D98009A60002307E0991C1D4A02EB810200215A
:104DA80051600133DBB2052BF5D9194A002382F88B
:104DB800243092F8751082F8251092F8741082F851
:104DC8002610002191624FF07E50D062116351632A
:104DD800916308E003F10E010D4A02EB8102002104
:104DE80051600133DBB2052BF4D9094B002283F85B
:104DF800542093F8812083F8552093F8802083F875
:104E0800562000229A654FF07E52DA65704700BF3F
:104E18000004002010B5174CD4ED007A9FED167AE7
:104E280067EE876AFDEEE66A16EE903AA4F86030FF
:104E3800DFED126A67EEA67AFDEEE77A17EE903A92
:104E48001BB26366D4ED0C7A27EE877ABDEEC77A7B
:104E580017EE103AA4F8683067EEA67AFDEEE77A06
:104E680017EE903A1BB2E36600F000FC84F890005D
:104E780010BD00BF0004002000007A4400401C461A
:104E880008B5FFF7C7FF00F0F7F91B4B93F88C3014
:104E9800E3B91A4BD3ED087AB3EE047AF4EEC77A85
:104EA800F1EE10FA0CD9B3EE0E7AF4EEC77AF1EE01
:104EB80010FA0DDB012204211148FDF778FD07E007
:104EC800002204210E48FDF772FD01E0012B00D0FD
:104ED80008BD094B93F8913013F0010F05D000225B
:104EE80004210748FDF763FDF2E701220421044885
:104EF800FDF75DFDECE700BF00040020EC05002095
:104F08000008004800B58C4651BBB0F5800F12D29E
:104F180007EE900AF8EE677ADFED5A6A76EEE77ADE
:104F280087EEA67AF0EE047A67EE277A9FED567A36
:104F380067EE877A18E007EE900AF8EE677ADFEDF9
:104F4800516A77EEE67AF1EE677A87EEA67AF0EEA6
:104F5800047A67EE277A9FED4C7A67EE877A03E04A
:104F680001291DD0DFED497A49480CEB4C0200EBD2
:104F7800021292F82430591CC9B282F824100CEBA2
:104F88004C0E03EB8E03023300EB8300C0ED017A75
:104F980092F8260081422CD00023DFED3C7A3DE0D8
:104FA80007EE900AF8EE677A9FED3A7AF4EEC77A40
:104FB800F1EE10FA0CD8F0EE476A87EEA67AF0EE1A
:104FC800047A67EE277A9FED347A67EE877ACBE723
:104FD8009FED327A77EEC77ADFED2E6A87EEA67AF2
:104FE800F0EE047A67EE277A9FED2B7A67EE877AE0
:104FF800BAE7274B03EB0E13002283F82420CBE7F4
:105008000CEB4C0203EB82020232214901EB8202D3
:1050180092ED017A77EE877A0133DBB29842EFD8C6
:1050280007EE100AF8EE476A87EEA67A184A0CEBE4
:105038004C0302EB031383ED027AD3ED0A7A77EE81
:10504800677A93ED0B7A67EE877AD3ED016A93F866
:10505800251007EE101AB8EE477AB7EE006A37EE59
:10506800067AF0EE005A85EE876A77EEE67A67EE02
:10507800867A77EEA67AC3ED017AC3ED007A5DF8F9
:1050880004FB00BFFCFF7F4A7A9E273F0000000018
:1050980000040020FEFFFF4A99DB413FFEFF7F4BE3
:1050A80008B51C21024800F02FFD00BFFFF7DCFD0A
:1050B8007404002008B51C21024800F067FD00BFF9
:1050C80008BD00BF7404002008B5FFF7DFFDFFF737
:1050D800F1FF08BD08B5012000F0B8F8FFF7F4FFAC
:1050E800FFF752FE08BD000008B56420FCF7DAFBA4
:1050F80000F014FBFFF7EEFF6420FCF7D3FB01225E
:1051080010211448FDF753FC14E000210846FFF76E
:10511800F9FEA02000F08CFCB8B901210E4BD8682C
:10512800FFF7F0FE4FF400510A48FDF745FC052053
:10513800FCF7B8FBA02000F0FFFB0028E5D1002118
:10514800054B5868FFF7DEFEE3E701210020FFF773
:10515800D9FEE7E700080048EC05002008B500BFC5
:10516800FFF782FD10B50C4600BF344B984203D0C0
:10517800334B984229D010BD184600F03CFE0E2C47
:105188000AD0122CF7D1022819D003281AD00128E6
:10519800F1D1FFF785FFEEE710F0010F07D0294A9C
:1051A80092F8913043F0010382F89130E3E7254A01
:1051B80092F8913023F0010382F89130DBE7FFF792
:1051C80065FDD8E7FFF7CAFFD5E7184600F013FEDC
:1051D800A4F165010829CED8DFE801F005080B0E17
:1051E800191C1F222D00FFF76DFDC4E7FFF776FDA0
:1051F800C1E7FFF77FFDBEE707EE900AF8EE677A92
:105208009FED110A27EE800AFFF77EFDB3E7FFF74F
:1052180081FDB0E7FFF78AFDADE7FFF793FDAAE749
:1052280007EE900AF8EE677A9FED070A27EE800AE4
:10523800FFF792FD9FE7FFF795FD9CE76C000020C4
:1052480060000020000400206F12833A10B5044665
:105258006420FCF727FB4FF482720549204600F0D2
:1052680031F900BF00F0C6F9024B587610BD00BFF7
:10527800E40400202C00002070B52DED028B734C47
:10528800734E22780121304600F0BCFD627802217D
:10529800304600F0B7FDA2780321304600F0B2FD99
:1052A800A2880421304600F0ADFDE2880521304691
:1052B80000F0A8FD227A0621304600F0A3FD627AAC
:1052C8000721304600F09EFDA27A0821304600F002
:1052D80099FDA2890921304600F094FDE2890A214E
:1052E800304600F08FFD227C0B21304600F08AFD0D
:1052F800584D95F890200D21304600F083FD95F823
:1053080091200E21304600F07DFDD4ED057AFCEEAB
:10531800E77A17EE903A9AB21021304600F072FD03
:10532800D4ED077AFCEEE77A17EE903A9AB211219B
:10533800304600F067FD484E95F8752065213046E7
:1053480000F060FD95F874206621304600F05AFDA3
:10535800D5ED1E7AFCEEE77A17EE903A9AB26721FD
:10536800304600F04FFDD5ED1F7A9FED3C8A67EE81
:10537800887AFCEEE77A17EE903A9AB268213046BE
:1053880000F040FD95F881206921304600F03AFD93
:1053980095F880206A21304600F034FDD5ED217A59
:1053A800FCEEE77A17EE903A9AB26B21304600F09D
:1053B80029FDD5ED227A67EE887AFCEEE77A17EEBA
:1053C800903A9AB26C21304600F01CFD95F88C207A
:1053D8006D21304600F016FDB5F96020204E92B2DE
:1053E800C921304600F00EFDB5F86420CA213046C8
:1053F80000F008FDB5F9682092B2CC21304600F0E3
:1054080001FDB5F86C20CD21304600F0FBFC227C74
:10541800CF21304600F0F6FCD4ED067AFCEEE77AB0
:1054280017EE903A9AB2D021304600F0EBFCD4ED5A
:10543800087AFCEEE77A17EE903A9AB2D121304614
:1054480000F0E0FCBDEC028B70BD00BFEC05002055
:105458006C000020000400206000002000007A4456
:105468005400002038B504460C4800F0FAFB08B98F
:1054780000BF38BD0546B0F1FF3F01D100BFF8E7D6
:1054880000BF04214FF09040FDF796FAEAB2034BB3
:105498001969204600F048F800BFEAE72C00002010
:1054A800BFF34F8F0549CA6802F4E062044B134307
:1054B800CB60BFF34F8F00BFFDE700BF00ED00E0FA
:1054C8000400FA0570B504460E4615466420FCF73C
:1054D800E9F9012C23D00024236858696FEA1030B9
:1054E8006FEA003058612268136843F080631360E4
:1054F8002268536843F400035360A4F868502046B8
:10550800FEF788FF21682B4632462431E06FFDF70D
:1055180021FB2268936843F04003936070BD014CFF
:10552800DAE700BF6C03002010B51346012813D03A
:105538000024A26F012082F82500A26F002082F8C3
:10554800240022682832A06FFDF704FB22689368C4
:1055580043F08003936010BD004CEAE76C03002021
:1055680008B5224B1B68DA6912F4006F2DD04FF48E
:1055780000621A621D4BDA6F11680A6822F0010294
:105588000A601A6808211162B3F86820DB6F1B688B
:105598005B689A4211D1154BDA6F1268B3F868103C
:1055A8005160DA6F11680A6842F001020A601A68ED
:1055B800936843F04003936008BD0120FFF752FF52
:1055C8000B4B4FF4FA621A80E5E7DA6912F0400FE4
:1055D80007D040221A6200BF044B9B6F1B685B68B0
:1055E800EAE7FAF758FEFFF75BFF00BF6C030020FD
:1055F800E805002038B51B4D10212846FDF7D0F9E5
:1056080044B208212846FDF7CBF944EA400464B2C5
:1056180004211548FDF7C4F944EA800464B205F58D
:1056280080654FF480512846FDF7BAF944EAC00472
:1056380064B24FF400612846FDF7B2F944EA001459
:1056480064B24FF480612846FDF7AAF944EA401095
:1056580010F0FF0003D03F2802D93F2000E00120CE
:1056680000BF38BD00040048000C004838B5174D8D
:1056780010212846FDF794F944B208212846FDF781
:105688008FF944EA400464B204211148FDF788F90F
:1056980044EA800464B205F580654FF480512846D9
:1056A800FDF77EF944EAC00464B24FF4006128466D
:1056B800FDF776F944EA001464B24FF48061284695
:1056C800FDF76EF944EA4010C0B238BD0004004846
:1056D800000C004808B50248FEF7ECF908BD00BF09
:1056E800C801002008B5084B1B681A6912F0010FA1
:1056F80003D0DA6812F0010F00D108BD6FF0010283
:105708001A61FFF7BDFBF8E7C801002008B5024899
:10571800FEF78AF908BD00BF1402002010B5FBF798
:1057280049F8FBF7DBF8144B1B68144AA2FB032368
:105738009B09013BB3F1807F0AD24FF0E02253610D
:105748000F4BF02183F82310002393610723136183
:105758006420FCF7A7F8FFF7BDFF0A4C7F2120461D
:10576800FBF72AFC6420FCF79DF8FFF7CFFF2046E3
:10577800FBF770FC10BD00BF28000020D34D62105D
:1057880000ED00E094000020D0ED007AF4EEC07A3D
:10579800F1EE10FA1BDC01F10053013B00EBC303EF
:1057A800D3ED007AF4EEC07AF1EE10FA12D40129A2
:1057B80033D90123994212DD00EBC302D2ED007AFE
:1057C800F4EEC07AF1EE10FA07DC0133F2E790ED5F
:1057D800010A704793ED010A7047DBB200E000232D
:1057E800F3B103F10052013A00EBC20292ED006AF4
:1057F80030EE460A00EBC300D0ED016AD2ED017A23
:1058080076EEE76A90ED007A37EE467A86EE876A9A
:1058180020EE060A37EE800A70479FED030A7047AC
:105828009FED010A704700BF0000000000B52DED94
:10583800028BC1B008EE100A00BF4FF480720A490B
:10584800684600F011FBB8EE480A20216846FFF7C9
:105858009BFFBDEEC00A10EE103A18B241B0BDEC85
:10586800028B5DF804FB00BF6061000800B52DEDF8
:10587800028BC1B008EE100A00BF4FF480720A49CB
:10588800684600F0F1FAB8EE480A20216846FFF7AA
:105898007BFFBDEEC00A10EE103A18B241B0BDEC65
:1058A800028B5DF804FB00BF6062000838B5204B2E
:1058B8001B681A6812F0400F00D138BD40221A60E8
:1058C8001B4D09212846FBF77DFC0009194C07EE02
:1058D800900AF8EE677AC4ED057A40F20F1128466F
:1058E800FBF770FC000907EE900AF8EE677AC4ED42
:1058F800077AD4ED057AFCEEE77A17EE903A98B27B
:10590800FFF794FF07EE900AF8EEE77AC4ED067AFF
:10591800D4ED077AFCEEE77A17EE903A98B2FFF7E3
:10592800A5FF07EE900AF8EEE77AC4ED087AC4E717
:1059380094000020EC05002070B50446FBF7ACFF8E
:10594800054600213648FEF783FB00263CE000BFF1
:105958004FF480413348FDF723F830B9FBF79CFF3B
:10596800401BA042F3D300E000BF4FF480412D4814
:10597800FDF716F8012806D1FBF78EFF401BA04261
:10598800F2D300E000BF4FF480412648FDF708F845
:1059980030B9FBF781FF401BA042F3D300E000BF02
:1059A8004FF480411F48FCF7FBFF012804D1FBF7A7
:1059B80073FF401BA042F2D3052304221A491B4857
:1059C800FDF7C7FD0136F6B2042EC1D900211448EF
:1059D800FEF7FCFB144A0023536013781B04536042
:1059E800517843EA0123536091780B43536023F0C5
:1059F8007F4323F03F035360FBF74EFF401BA04259
:105A080006D3094A137C43F001031374012070BDC7
:105A1800054A137C23F0010313740020F7E700BF45
:105A28006002002000040048EC050020000100206E
:105A380070B50446FBF730FF054600E000BF402183
:105A48004FF09040FCF7ACFF012806D1FBF724FF8C
:105A5800401BA042F2D300E000BF40214FF090402D
:105A6800FCF79EFF20B9FBF717FF401BA042F3D3BA
:105A780000261BE000BF40214FF09040FCF790FF4C
:105A8800012804D1FBF708FF401BA042F2D30023F2
:105A980002E000BF01339BB2C72BFAD902230422CC
:105AA80016491748FDF755FD0136F6B2042EE2D91E
:105AB800144A0023D360137A1B04D360517A43EA53
:105AC8000123D360917A0B43D36023F07F4323F003
